:10000000FC7F002001060000ED050000F105000066
:1000100000000000000000000000000000000000E0
:10002000000000000000000000000000F5050000D6
:100030000000000000000000F9050000FD050000C0
:1000400010B5064C2378002B07D1054B002B02D0AE
:10005000044800E000BF0123237010BD54000020BD
:1000600000000000C8190000044B10B5002B03D09D
:100070000349044800E000BF10BDC0460000000076
:1000800058000020C819000010B5C3699B07FCD4B4
:1000900003680224A3430360C369DB07FCD403683D
:1000A0000124234303600368DB07FCD4C369DB0737
:1000B000FCD4C3699B07F9D4084B1A430260C36997
:1000C0005B07FCD4C0239B0243608181C3699B070B
:1000D000FCD4036802221343036010BD04000040F7
:1000E000037EDB07FCD589B201857047037E5B0781
:1000F000FCD5438BDB0705D4438B9B0702D4438B92
:100100005B0702D5024B01221A70008DC0B2704706
:1001100070000020F8B5040003689A8B120707D41A
:100120000822FF329B5CDB0631D500F01FFB2EE07E
:100130009A8B08210A439A8380229A72802149006F
:100140001120585440260621FF315E5482256D004F
:100150005A55104A5168104F3940C020800501435C
:10016000516051693940084350610C4911600C4994
:10017000116151680B480840802189020143516098
:100180005168890B890351605E55002323712079E2
:10019000F8BDC04684010020FFFFFF8F84000020CF
:1001A00004010020FF3F00F0016000230371437150
:1001B000034B83600B78022213430B707047C046D9
:1001C0001501000010B5394AD36920210B43D361D2
:1001D000374B38315A5C012422435A543C22985CF4
:1001E000493988439854985C06210843985459200B
:1001F000195C21431954995C4A3801409954995C1F
:100200006020014399542B4B2B4A5A801A00537893
:100210005BB2002BFBDB294A137801210B431370DF
:100220009378DB07FCD4264B1B689B03DB0E1F2B4C
:1002300036D022490A8D9B012248024013430B8588
:100240001F4B1B685B02DB0E1F2B2BD01B490A8D3B
:100250001F20824313430B85194B1A689201520FDA
:10026000072A21D0154B198D1203174801400A4364
:100270001A8519787F220A401A701A7804210A43D5
:100280001A70124858621A890C218A431A811A89F5
:100290000B398A431A818022002101F024FA10BD13
:1002A0001A3BC6E7023BD1E7043ADBE70004004013
:1002B00000440041000C0040064000000050004196
:1002C000246080003FF8FFFFFF8FFFFF84010020C4
:1002D000F0B5C64600B5050016001C0098465A0148
:1002E000224B9B1810335B685B005B0F03330122CA
:1002F0009A40B2422ED862011C4B9B18586980224A
:10030000120602435A616201184B9B181A001961C8
:100310005B69B104890C9B0B9B030B4353615369CD
:1003200013490B405361083464012C19E37902220C
:100330001343E371627980235B4213436371404648
:10034000083040012818C3799B07FCD5300004BC55
:100350009046F0BD27007B1E9F41BF01054BFF1853
:100360003200380001F0B6F93900CCE784010020F2
:10037000FF3F00F00401002070B504000E001500DE
:100380001C4B1B78002B14D11B4B1C4A1A645A6C53
:10039000920B92035A645A6C19490A405A64A22279
:1003A0005200835C40210B438354124B443AFF3A82
:1003B0001A704823FF33E35C0020DB0718D50E4B8F
:1003C0005B6C9B049B0CAB4203D20B4B5D6CAD048E
:1003D000AD0C2A000949300001F07CF94822FF32B7
:1003E000A35C01210B43A354024B00221A70280086
:1003F00070BDC0467100002084010020C4000020B0
:10040000FF3F00F0002904D10623FF331022C2541D
:1004100070470623FF332022C254F9E70B4A536981
:100420009B0B9B0353610822FF32835C02210B4329
:1004300083540622FF32815C80235B420B4383544A
:100440000822FF32835C9B07FCD5704784010020A3
:1004500080235B421943C9B28172704770B5A023F3
:100460005B000322C254134B5A6C134C2240C02130
:1004700089050A435A6440254622FF3285540F4AB3
:100480001A6490225200302686545A6B224011433F
:1004900059638021922252008154094A1A63B02282
:1004A000520085545A6F22405A67B2235B00C154F0
:1004B00070BDC04684010020FFFFFF8FC4000020F4
:1004C00044010020404A53681E218B431C390B43D2
:1004D00053603E4A936906310B4393613C4B3D4A5E
:1004E0009A829A8A02210A439A8219000222CB68D0
:1004F0001A42FCD0384B01221A701A0001211378DD
:100500000B4203D053785BB2002BF8DB324B012255
:100510009A601A0053785BB2002BFBDB2E4B2F4AFC
:100520005A601A0053785BB2002BFBDB2A4B822205
:10053000D2015A801A0053785BB2002BFBDB244AAD
:10054000938C80218B43938411001022CB681A4234
:10055000FCD01F4B224ADA6219001022CB681A42E3
:10056000FCD01B4A938C1F490B439384110010222B
:10057000CB681A42FCD0164A938C02210B43938419
:1005800080214020D3681942FCD0D3681842F9D0AA
:100590000F491022CB681A42FCD00F4B00229A6000
:1005A0001A0053785BB2002BFBDB0B4B0E4A5A60F0
:1005B0001A0053785BB2002BFBDB044B00221A724B
:1005C0005A729A72DA72704700400041000400408B
:1005D000000800400C060000000C0040010501006E
:1005E000B805FF7D040A0000000703000EBEFEE709
:1005F0000DBEFEE705BEFEE702BEFEE701BEFEE75A
:1006000010B5164A164B9A4215D0164A134B9A4209
:1006100011D01A00124B9A420DD20333124A9B1A80
:100620009B0801339B0000220C480E498C588450D3
:1006300004329A42FAD10D4A0D4B9A420AD009D29D
:10064000111D03335B1A032083435B18002102C290
:100650009A42FCD100F00EF8FEE7C04600000020F0
:1006600054000020CC190000040000205400002099
:1006700094030020F0B585B000AF324B9A68BA60A1
:100680005B69FB60304A3823D35CDB071AD52F4BFC
:1006900000221A602E4B1A68531C26D02D4B2E496F
:1006A0000B60043BFF210B421FD126498969796009
:1006B00082F30888FF229343284A9360244B5B68A7
:1006C000184712E0214B1A68254B9A420AD01F4B5B
:1006D000234A1A60234B013B002BFCD11B4B002209
:1006E0001A60D7E7194B00221A60FFF7EBFE62B6DB
:1006F00000F0DAFD00F03CFA0400124B9B693B600D
:10070000194E012506E03378002B0BD1164B1B78D0
:10071000002B0DD02000A36898470028F3D0124B7F
:100720001D70F0E7002000F0A5FA00F011FBFCE7D7
:1007300000F02EFE0028EDD0012000F09BFA00F022
:1007400007FBFCE70044004100040040FC7F002060
:1007500000200000042000000402002000ED00E062
:100760003581730748E8010072000020F8B50500E4
:1007700004680822FF32A35C10210B43A354A54B4D
:100780001A78A54802705A78A44E32709978A44A13
:1007900011801188DF783F02394311801979A14A0D
:1007A000118011885F793F023943118099799E4AFF
:1007B00011801188DB791B020B43138082235B00BD
:1007C0004022E254337802781B021343974A934243
:1007D00000D1E5E025DC80225200934252D012DDA8
:1007E00081225200934200D134E100DA0DE1FF3260
:1007F000FF32934200D1CEE08D4A93420CD12000CB
:10080000FFF70CFE3AE0812B00D186E0822B00D16D
:100810008BE0802B00D178E001212000FFF7F2FD72
:100820002CE09022120193425ED012DD814A934265
:1008300000D180E123DD804A934200D17FE17F4AED
:100840009342E9D1764B1B886B712000FFF7E6FDE0
:1008500014E0D022D200934219D088221201934290
:100860004CD0A022D2009342D6D12000FFF7D6FD73
:100870006B4B198889B22868FFF7EAFDF8BD704A0A
:100880009342C9D101212000FFF7BCFDF6E7644B7C
:100890001B881B0A012B13D0614B1B881B0A022BE0
:1008A0001DD12868604B1B889BB24322432B02D882
:1008B0005D4B1A8892B200236249FFF709FDDDE71C
:1008C0002868594B1B889BB21222122B02D8564B18
:1008D0001A8892B200235C49FFF7FAFCCEE70121A7
:1008E0002000FFF78FFDC9E74D4B1B882B712000BF
:1008F000FFF794FD2000FFF7B1FDBFE7291D286831
:1009000000230122FFF7E4FCB8E7504900230B80E5
:1009100028680222FFF7DCFCB0E74C4900230B807B
:1009200028680222FFF7D4FCA8E7484B00221A806F
:100930003C4B1A8850210A4045490A701A880F21F9
:100940000A401A801B889BB2032B1FD8404B1B7890
:10095000002B10D0334B1B8808335B01E418A379BC
:100960009B06DB0F394A138028680023022237498F
:10097000FFF7AEFC82E72B4B1B8808335B01E418C2
:10098000A379DB06DB0F314A1380EDE7012120005C
:10099000FFF738FD72E701212000FFF733FD6DE717
:1009A000204B1A8880210A4029490A701A880F2191
:1009B0000A401A801A4B1B889BB2002B20D1194B7E
:1009C0001B889BB2002B1BD0164B1B889BB2032BA2
:1009D00016D81F4B1B78002B0AD0124B1B880833EC
:1009E0005B01E31820225A712000FFF717FD45E74D
:1009F0000C4B1B8808335B01E31810225A71F3E794
:100A000001212000FFF7FEFC38E72000FFF706FD7C
:100A100034E7C046840000207400002073000020EA
:100A20007C000020760000207800002002030000F7
:100A30000103000021200000A1210000212200006C
:100A4000010B000000000020101700007A000020B9
:100A500075000020414B1A8880210A4040490A70E5
:100A60001A880F210A401A803E4B1B889BB2002B2C
:100A70005CD13A4B1B889BB2002B57D0374B1B885D
:100A80009BB2032B52D8364B1B78002B28D0334B0C
:100A90001B8808335B01E3189B799B061CD52F4A02
:100AA000138808335B01E318113119711388083377
:100AB0005B01E318DB795B060ED511001388083360
:100AC0005B01E318DA7940200243DA710B880833BE
:100AD0005B01E31802221A712000FFF79FFCCDE6AC
:100AE0001E4B1B8808335B01E3189B79DB06F3D5AB
:100AF0001A4A138808335B01E3181021197113880F
:100B000008335B01E318DB799B06E5D511001388F8
:100B100008335B01E318DA7920200243DA710B888D
:100B200008335B01E31801221A71D5E70121200087
:100B3000FFF768FCA2E62000FFF770FC9EE628683D
:100B4000094B1B889BB20822082B02D8064B1A8837
:100B500092B200230549FFF7BBFB8FE67600002029
:100B6000750000207C000020780000204400002058
:100B700010B5054C054B2360FFF724FB21682000CE
:100B8000FFF712FB200010BD0802002000500041BA
:100B900000B583B00190054B18680123012201A91B
:100BA000FFF796FB012003B000BDC04608020020FD
:100BB00010B582B06B46DC1D044B18680122210081
:100BC000FFF7DAFB207802B010BDC0460802002013
:100BD00010B50748FFF79EFA03000020002B06D04F
:100BE000034B1A684823FF33D05CC007C00F10BD09
:100BF0000802002070B505000C00044B18680123A2
:100C00000A002900FFF764FB200070BD08020020E5
:100C100070B504000D000848FFF77CFA0023002897
:100C200001D1180070BD044B18682A002100FFF79D
:100C3000A3FB0300F5E7C04608020020F8B5050055
:100C40000E000B48FFF766FA00280DD0002E0CD0DE
:100C50003400074F220029003868FFF78DFB241A63
:100C60002D18002CF6D100E000263000F8BDC0465B
:100C700008020020012805D0002802D1054B064AB1
:100C80001A607047034B054A1A60054B01221A701F
:100C9000F7E7C04678020020AC170000901700006C
:100CA0007E000020F0B585B01F4B1B78002B05D1CE
:100CB0001E4B1B68DB68984705B0F0BD042908D0BF
:100CC00002290FD000784D001CD004AB5A190B3A02
:100CD00004E000684D0004AB5A190B3A00240F26BB
:100CE000302708E00088F5E7373313700009013A30
:100CF0000134AC4206D233000340092BF4D83B4305
:100D00001370F3E701A830230370483343700131B7
:100D100049006E3B435445190333EB700231034BDA
:100D20001B68DB689847C7E77F0000207802002037
:100D300080B500AF72B6EFF30883044A136003680E
:100D400083F3088843681847BD4680BD7C020020B5
:100D5000F0B5DE4657464E464546E0B58DB000AF8D
:100D600008230822BA18D118D14B0A0031CB31C25E
:100D700031CB31C211CB11C2CE4883685B035B0F0C
:100D80009B005A58CC4B1A6083689BB2CB490B60CE
:100D90005343CB4A1360CB4B00221A60CA4B7A32C2
:100DA0001A700320FFF72CF9C84CC94B1B681B694C
:100DB000402120009847C74B1860C74B1C60C74BA9
:100DC00000221A600028ECD0C34C33E0C44B1B78DF
:100DD000002B05D0BE4B1B68DB680221C148984739
:100DE000B94B1B78532B37D0522B74D1BE4B19689B
:100DF000B44B1868B64B1B685B699847B24B7A22B4
:100E00001A70B94B00221A60B54B1B78002B05D025
:100E1000AF4B1B68DB680121B4489847AF4A1368A1
:100E200001331360AC490A6801320A60A94A1268AA
:100E30009342B6D223681B78FF2BEFD0232BC5D06B
:100E40001A00303A092A00D9F2E1A7490A681201CA
:100E5000303B13430B60E1E79E4B1A689F4B1B68C6
:100E60009A421ED99C4801680131016001339B48B8
:100E70000360D31A9C4A1268934229D29C4A136099
:100E8000904B18689A4E326800F024FC33689349FE
:100E90000A68D2180A6090490A68D2180A60954A0E
:100EA00013708E4A1368013B13608B4A1368013B31
:100EB0001360904B1B788C4A11688B4206D2C91A7A
:100EC000804B1868824B1B689B699847C04695E722
:100ED000874B1A60D4E74F2B17D0482B1BD0572BCA
:100EE0001FD06F2B23D0682B27D0772B2ED0472BEA
:100EF00035D0542B47D17A4B01221A70744B1B68A2
:100F0000DB6802217748984778E76E4B1B68764A82
:100F100012681A7072E76B4B1B68734A12681A806A
:100F20006CE7684B1B68704A12681A6066E7654B8D
:100F300018680121FFF7B6FE60E76B48614B1B683C
:100F40001B8803600221FFF7ADFE57E75D4B1B686E
:100F50001B68654803600421FFF7A4FE4EE7624B5F
:100F60001868FFF7E5FE644B1B6883F3088862B6D8
:100F7000624B1B78002B00D140E7554B1B681B6868
:100F8000062098473AE74E2B52D0562B5ED1504E52
:100F90003368DB6801215A4898473368DB680321CE
:100FA000584898473368DB680121574898473368A9
:100FB000DB680D21554898473368DB6801215248AA
:100FC0009847464B00221A60434B514A1A604348E7
:100FD0001A000368591C016013685E1C16601B78B8
:100FE000002BF6D13A4E3368DB684A48984733689D
:100FF000DB68012144489847384B00221A60364B81
:10100000454A1A6035481A000368591C0160136884
:101010005E1C16601B78002BF6D12D4E3368DB6802
:101020003E4898473368DB6802212E489847E5E63A
:101030002B4B1B78002B05D1254B1B68DB6802214D
:1010400028489847264B00221A70D7E6582B11D013
:10105000592B00D0ACE0244B1B68002B68D1194BF6
:101060001A682F4B1A601A4B1B68DB6803212D4846
:101070009847C3E61C4B1B68114A126893420FD273
:101080000C4A0D4E0E485908D16127491180117D37
:10109000C907FCD5316889005B1801688B42F2D31F
:1010A0000B4B1B68DB68032120489847A6E6C04627
:1010B00024170000004000413002002028020020D8
:1010C00024020020740200202002002034020020AC
:1010D00078020020180200201C0200202C020020B0
:1010E0007F00002058170000800200208C170000AD
:1010F00084020020140200207C0200207E000020D8
:101100005C1700005417000060170000441700002F
:1011100065170000641700007117000070170000C9
:10112000800000208017000002A5FFFF7C17000050
:101130009B08524A12689346514A166851494A68B8
:10114000802082434A60002B8DD04F4A92464F4AFE
:1011500091464F4A90460BE0002223E01A0021E01E
:1011600090003618DC468444E3469B1A00D17AE7A7
:1011700052460A800A7DD207FCD54A461268032AE5
:10118000EAD9002BEAD0002000225D462D587D6070
:10119000355001323D4D2D68AD08AA4202D20430CF
:1011A0009A42F2D140460880087DC007FCD5D7E7B7
:1011B0005A2B00D022E6324B1B68364A1268002AAE
:1011C00017D01E0094469C44E04600231D00307852
:1011D000290000F0FFF8050001364645F7D12E4BF7
:1011E0001B68DB6801212D4898472E0007230F203C
:1011F00007E000231D00F2E70822BA18D154013B92
:1012000009D302003240360911003031092AF3DDDA
:1012100037321100F0E7204E3368DB6808210822DE
:10122000B81898473368DB6803211D489847E5E5FF
:101230001A00413A052A06D816490A681201373BB6
:1012400013430B60EAE51A00613A052A06D81149F2
:101250000A681201573B13430B60DFE52C2B05D0C6
:10126000104A13700B4B00221A60D7E5094B044A51
:101270001968116000221A60D0E5C0468000002085
:10128000740200200040004144A5FFFF300200200E
:1012900004A5FFFF800200207802002084170000D0
:1012A000881700002002002010B51E4B4A215A5C0E
:1012B000012422435A543522985C3B398843985480
:1012C000985C0221084398544B20195C214319541F
:1012D000995C3C3801409954995C20200143995411
:1012E000114A136A04210B431362104B104A5A80AF
:1012F0001A0053785BB2002BFBDBC42292030D492A
:101300000D48FEF7C1FE00230C4A13700C4A1370FF
:101310000C4A13700C4A13700C4A13700C4A137069
:1013200010BDC0460044004100040040000C0040D5
:10133000144000002AF60000000800428802002045
:1013400012030020890200208C02002013030020D9
:101350001003002010B5C1B20248FEF7C1FE012003
:1013600010BDC04600080042024B187E4007C00F67
:101370007047C0460008004210B5FFF7F5FF00288F
:10138000FBD00248FEF7B2FE10BDC0460008004286
:1013900010B5FFF7E9FF0023002801D1180010BDA8
:1013A000FFF7EAFF233843424341F7E770B50400F3
:1013B0000E1E06D045182078FFF7CCFF0134A54259
:1013C000F9D1300070BD10B50400FFF7D5FF2070D3
:1013D000012010BD0B0A43405B000902024A985AE3
:1013E000484080B27047C046C8170000F0B5D646E6
:1013F000474680B583B006000F1E2BD00024002383
:101400000193194B9A46194B984608E0731C3570A6
:101410001E00802F18D00134A4B2A7421ED0FFF7BF
:10142000ABFFC5B253461B78002B15D1019928009C
:10143000FFF7D0FF019043461B88002BE6D10C4BF1
:101440001B78002BE7D0E1E7084A1288013A0749E8
:101450000A80E0E7019101E001230193019803B0C4
:101460000CBC90469A46F0BD100300208A02002072
:1014700011030020F0B5DE4657464E464546E0B51E
:1014800083B001908B464C4B00221A70002918D172
:101490004A4B01321A70484C0025FFF76DFF237844
:1014A000002B1CD1C0B2432803D071287CD0152852
:1014B000F3D101239946424B98461C003F4B9A4674
:1014C00062E03F4B19803D4B00221A700B005B0617
:1014D000E1D00B0080337F3293439B46DBE7364BF2
:1014E0001D70FFF749FFC0B2334B1B78002BDAD0D9
:1014F000314B00221A70002057E02F4B00221A7047
:10150000002052E00420FFF725FFFFF735FF2B4BAB
:1015100000221A70012048E03D78013B238001370A
:101520002800FFF717FF00992800FFF753FF0090EE
:10153000013E002E08D043461B88002BECD15246BA
:101540001578002DECD0E7E70500000AC0B2FFF7E0
:1015500001FFE8B2FFF7FEFEFFF70EFF164B1B7808
:10156000002BCAD1FF23184006280AD14B4601336D
:10157000DBB2994680235B429C46E344019B803367
:1015800001935B46002BBDD00120FFF7E3FE4846E8
:10159000FFF7E0FE4B46D843C0B2FFF7DBFE019FEA
:1015A000802600230093C6E7002003B03CBC904691
:1015B0009946A246AB46F0BD10030020110300205F
:1015C0008A020020F0B585B005003E4B00221A705B
:1015D000002904D13C4B01321A7064260AE03B4BCF
:1015E0001980394B00221A70F7E7002C0ED1013E0A
:1015F000002E65D04320FFF7ADFE354CFFF7B4FE5B
:101600000028F2D1002CF2D0013CF7E701242D4E46
:1016100041E02C4B00221A7000204BE0022103A86D
:10162000FFF7E4FE80212800FFF7E0FE0190254B44
:101630001B78002B08D0234B1B78002B36D0214B76
:1016400000221A70002035E0FFF796FE0700FFF732
:1016500093FE1C4B1A78012AEDD03F02381880B255
:10166000019B834203D103AB1B78A34203D0182014
:10167000FFF770FEDFE7E34303AA5278DBB29A423A
:10168000F5D10620FFF766FE0E4B1B78002BD6D156
:101690000134E4B28035FFF76FFE3378002BB8D108
:1016A000FF2318400128B9D0042805D0064B00229A
:1016B0001A70012005B0F0BD0620FFF74BFEF5E7DC
:1016C0000020F7E710030020110300208A02002009
:1016D00000350C00002310B59A4200D110BDCC5C3F
:1016E000C4540133F8E703001218934200D1704745
:1016F00019700133F9E70000F8B5C046F8BC08BC22
:101700009E467047F8B5C046F8BC08BC9E46704778
:101710001201000202000040EA2200000002000064
:101720000001000008000000100000002000000080
:1017300040000000800000000001000000020000E6
:10174000000400005B41726475696E6F3A58595A23
:101750005D000000322E30000A0D0000760000000F
:10176000200000004A616E203132203230323500D4
:1017700031373A35393A303300000000580A0D004D
:10178000590A0D005A000000230A0D003E00000017
:10179000551300007913000069130000AD13000019
:1017A000C713000075140000C5150000910B000060
:1017B000B10B0000D10B0000F50B0000110C000074
:1017C000F50B00003D0C00000000211042206330AA
:1017D0008440A550C660E770088129914AA16BB189
:1017E0008CC1ADD1CEE1EFF1311210027332522231
:1017F000B5529442F772D662399318837BB35AA3D9
:10180000BDD39CC3FFF3DEE3622443342004011400
:10181000E664C774A44485546AA54BB52885099528
:10182000EEE5CFF5ACC58DD55336722611163006D0
:10183000D776F6669556B4465BB77AA71997388778
:10184000DFF7FEE79DD7BCC7C448E5588668A77890
:101850004008611802282338CCC9EDD98EE9AFF9C8
:10186000488969990AA92BB9F55AD44AB77A966A70
:10187000711A500A333A122AFDDBDCCBBFFB9EEB18
:10188000799B588B3BBB1AABA66C877CE44CC55C40
:10189000222C033C600C411CAEED8FFDECCDCDDD68
:1018A0002AAD0BBD688D499D977EB66ED55EF44E10
:1018B000133E322E511E700E9FFFBEEFDDDFFCCFB8
:1018C0001BBF3AAF599F788F8891A981CAB1EBA10C
:1018D0000CD12DC14EF16FE18010A100C230E32088
:1018E0000450254046706760B9839893FBA3DAB330
:1018F0003DC31CD37FE35EF3B1029012F322D232D8
:101900003542145277625672EAB5CBA5A8958985FF
:101910006EF54FE52CD50DC5E234C324A014810427
:101920006674476424540544DBA7FAB79987B897CF
:101930005FE77EF71DC73CD7D326F2369106B01677
:1019400057667676154634564CD96DC90EF92FE98F
:10195000C899E9898AB9ABA94458654806782768C7
:10196000C018E1088238A3287DCB5CDB3FEB1EFB6F
:10197000F98BD89BBBAB9ABB754A545A376A167A17
:10198000F10AD01AB32A923A2EFD0FED6CDD4DCD3F
:10199000AABD8BADE89DC98D267C076C645C454C67
:1019A000A23C832CE01CC10C1FEF3EFF5DCF7CDF0F
:1019B0009BAFBABFD98FF89F176E367E554E745EB7
:0C19C000932EB23ED10EF01E000000007D
:1019CC0009024300020100803209040000010202F6
:1019DC000000052400100104240200052406000167
:1019EC000524010001070583030800FF0904010019
:1019FC00020A0000000705810240000007050202F0
:101A0C004000000000C20100000008006900000056
:041A1C004100000085
:0400000300000601F2
:00000001FF
